{
  "_format": "hh-sol-artifact-1",
  "contractName": "MVPTicketSale",
  "sourceName": "contracts/MVPTicketSale.sol",
  "abi": [
    {
      "inputs": [
        {
          "internalType": "address",
          "name": "admin",
          "type": "address"
        },
        {
          "internalType": "address",
          "name": "tokenContract",
          "type": "address"
        },
        {
          "internalType": "address",
          "name": "ticketContract",
          "type": "address"
        }
      ],
      "stateMutability": "nonpayable",
      "type": "constructor"
    },
    {
      "anonymous": false,
      "inputs": [
        {
          "indexed": false,
          "internalType": "uint256",
          "name": "flightId",
          "type": "uint256"
        }
      ],
      "name": "AddedFlight",
      "type": "event"
    },
    {
      "anonymous": false,
      "inputs": [
        {
          "indexed": true,
          "internalType": "address",
          "name": "account",
          "type": "address"
        },
        {
          "indexed": true,
          "internalType": "uint256",
          "name": "flightId",
          "type": "uint256"
        },
        {
          "indexed": false,
          "internalType": "uint256",
          "name": "ticketId",
          "type": "uint256"
        }
      ],
      "name": "PurchasedTicket",
      "type": "event"
    },
    {
      "anonymous": false,
      "inputs": [
        {
          "indexed": true,
          "internalType": "bytes32",
          "name": "role",
          "type": "bytes32"
        },
        {
          "indexed": true,
          "internalType": "bytes32",
          "name": "previousAdminRole",
          "type": "bytes32"
        },
        {
          "indexed": true,
          "internalType": "bytes32",
          "name": "newAdminRole",
          "type": "bytes32"
        }
      ],
      "name": "RoleAdminChanged",
      "type": "event"
    },
    {
      "anonymous": false,
      "inputs": [
        {
          "indexed": true,
          "internalType": "bytes32",
          "name": "role",
          "type": "bytes32"
        },
        {
          "indexed": true,
          "internalType": "address",
          "name": "account",
          "type": "address"
        },
        {
          "indexed": true,
          "internalType": "address",
          "name": "sender",
          "type": "address"
        }
      ],
      "name": "RoleGranted",
      "type": "event"
    },
    {
      "anonymous": false,
      "inputs": [
        {
          "indexed": true,
          "internalType": "bytes32",
          "name": "role",
          "type": "bytes32"
        },
        {
          "indexed": true,
          "internalType": "address",
          "name": "account",
          "type": "address"
        },
        {
          "indexed": true,
          "internalType": "address",
          "name": "sender",
          "type": "address"
        }
      ],
      "name": "RoleRevoked",
      "type": "event"
    },
    {
      "inputs": [],
      "name": "ADMIN_ROLE",
      "outputs": [
        {
          "internalType": "bytes32",
          "name": "",
          "type": "bytes32"
        }
      ],
      "stateMutability": "view",
      "type": "function"
    },
    {
      "inputs": [],
      "name": "DEFAULT_ADMIN_ROLE",
      "outputs": [
        {
          "internalType": "bytes32",
          "name": "",
          "type": "bytes32"
        }
      ],
      "stateMutability": "view",
      "type": "function"
    },
    {
      "inputs": [
        {
          "internalType": "address",
          "name": "account",
          "type": "address"
        }
      ],
      "name": "accountTicketIds",
      "outputs": [
        {
          "internalType": "uint256[]",
          "name": "",
          "type": "uint256[]"
        }
      ],
      "stateMutability": "view",
      "type": "function"
    },
    {
      "inputs": [
        {
          "internalType": "string",
          "name": "flightNumber",
          "type": "string"
        },
        {
          "internalType": "enum MVPTicketSale.FlightClass",
          "name": "flightClass",
          "type": "uint8"
        },
        {
          "internalType": "uint16",
          "name": "numSeats",
          "type": "uint16"
        },
        {
          "internalType": "string",
          "name": "departureCode",
          "type": "string"
        },
        {
          "internalType": "uint256",
          "name": "departureTime",
          "type": "uint256"
        },
        {
          "internalType": "string",
          "name": "arrivalCode",
          "type": "string"
        },
        {
          "internalType": "uint256",
          "name": "arrivalTime",
          "type": "uint256"
        },
        {
          "internalType": "uint256",
          "name": "price",
          "type": "uint256"
        }
      ],
      "name": "addFlight",
      "outputs": [],
      "stateMutability": "nonpayable",
      "type": "function"
    },
    {
      "inputs": [
        {
          "internalType": "uint256",
          "name": "flightId",
          "type": "uint256"
        }
      ],
      "name": "buyTicket",
      "outputs": [],
      "stateMutability": "nonpayable",
      "type": "function"
    },
    {
      "inputs": [
        {
          "internalType": "uint256",
          "name": "flightId",
          "type": "uint256"
        }
      ],
      "name": "flightById",
      "outputs": [
        {
          "components": [
            {
              "internalType": "enum MVPTicketSale.FlightSaleStatus",
              "name": "saleStatus",
              "type": "uint8"
            },
            {
              "internalType": "string",
              "name": "flightNumber",
              "type": "string"
            },
            {
              "internalType": "enum MVPTicketSale.FlightClass",
              "name": "class",
              "type": "uint8"
            },
            {
              "internalType": "uint16",
              "name": "availableSeats",
              "type": "uint16"
            },
            {
              "internalType": "string",
              "name": "departureCode",
              "type": "string"
            },
            {
              "internalType": "uint256",
              "name": "departureTime",
              "type": "uint256"
            },
            {
              "internalType": "string",
              "name": "arrivalCode",
              "type": "string"
            },
            {
              "internalType": "uint256",
              "name": "arrivalTime",
              "type": "uint256"
            },
            {
              "internalType": "uint256",
              "name": "price",
              "type": "uint256"
            }
          ],
          "internalType": "struct MVPTicketSale.Flight",
          "name": "",
          "type": "tuple"
        }
      ],
      "stateMutability": "view",
      "type": "function"
    },
    {
      "inputs": [
        {
          "internalType": "uint256",
          "name": "ticketId",
          "type": "uint256"
        }
      ],
      "name": "flightByTicketId",
      "outputs": [
        {
          "components": [
            {
              "internalType": "enum MVPTicketSale.FlightSaleStatus",
              "name": "saleStatus",
              "type": "uint8"
            },
            {
              "internalType": "string",
              "name": "flightNumber",
              "type": "string"
            },
            {
              "internalType": "enum MVPTicketSale.FlightClass",
              "name": "class",
              "type": "uint8"
            },
            {
              "internalType": "uint16",
              "name": "availableSeats",
              "type": "uint16"
            },
            {
              "internalType": "string",
              "name": "departureCode",
              "type": "string"
            },
            {
              "internalType": "uint256",
              "name": "departureTime",
              "type": "uint256"
            },
            {
              "internalType": "string",
              "name": "arrivalCode",
              "type": "string"
            },
            {
              "internalType": "uint256",
              "name": "arrivalTime",
              "type": "uint256"
            },
            {
              "internalType": "uint256",
              "name": "price",
              "type": "uint256"
            }
          ],
          "internalType": "struct MVPTicketSale.Flight",
          "name": "",
          "type": "tuple"
        }
      ],
      "stateMutability": "view",
      "type": "function"
    },
    {
      "inputs": [],
      "name": "flights",
      "outputs": [
        {
          "components": [
            {
              "internalType": "enum MVPTicketSale.FlightSaleStatus",
              "name": "saleStatus",
              "type": "uint8"
            },
            {
              "internalType": "string",
              "name": "flightNumber",
              "type": "string"
            },
            {
              "internalType": "enum MVPTicketSale.FlightClass",
              "name": "class",
              "type": "uint8"
            },
            {
              "internalType": "uint16",
              "name": "availableSeats",
              "type": "uint16"
            },
            {
              "internalType": "string",
              "name": "departureCode",
              "type": "string"
            },
            {
              "internalType": "uint256",
              "name": "departureTime",
              "type": "uint256"
            },
            {
              "internalType": "string",
              "name": "arrivalCode",
              "type": "string"
            },
            {
              "internalType": "uint256",
              "name": "arrivalTime",
              "type": "uint256"
            },
            {
              "internalType": "uint256",
              "name": "price",
              "type": "uint256"
            }
          ],
          "internalType": "struct MVPTicketSale.Flight[]",
          "name": "",
          "type": "tuple[]"
        }
      ],
      "stateMutability": "view",
      "type": "function"
    },
    {
      "inputs": [
        {
          "internalType": "bytes32",
          "name": "role",
          "type": "bytes32"
        }
      ],
      "name": "getRoleAdmin",
      "outputs": [
        {
          "internalType": "bytes32",
          "name": "",
          "type": "bytes32"
        }
      ],
      "stateMutability": "view",
      "type": "function"
    },
    {
      "inputs": [
        {
          "internalType": "bytes32",
          "name": "role",
          "type": "bytes32"
        },
        {
          "internalType": "address",
          "name": "account",
          "type": "address"
        }
      ],
      "name": "grantRole",
      "outputs": [],
      "stateMutability": "nonpayable",
      "type": "function"
    },
    {
      "inputs": [
        {
          "internalType": "bytes32",
          "name": "role",
          "type": "bytes32"
        },
        {
          "internalType": "address",
          "name": "account",
          "type": "address"
        }
      ],
      "name": "hasRole",
      "outputs": [
        {
          "internalType": "bool",
          "name": "",
          "type": "bool"
        }
      ],
      "stateMutability": "view",
      "type": "function"
    },
    {
      "inputs": [
        {
          "internalType": "uint256",
          "name": "flightId",
          "type": "uint256"
        }
      ],
      "name": "numAvailableSeats",
      "outputs": [
        {
          "internalType": "uint16",
          "name": "",
          "type": "uint16"
        }
      ],
      "stateMutability": "view",
      "type": "function"
    },
    {
      "inputs": [],
      "name": "numFlights",
      "outputs": [
        {
          "internalType": "uint256",
          "name": "",
          "type": "uint256"
        }
      ],
      "stateMutability": "view",
      "type": "function"
    },
    {
      "inputs": [
        {
          "internalType": "bytes32",
          "name": "role",
          "type": "bytes32"
        },
        {
          "internalType": "address",
          "name": "account",
          "type": "address"
        }
      ],
      "name": "renounceRole",
      "outputs": [],
      "stateMutability": "nonpayable",
      "type": "function"
    },
    {
      "inputs": [
        {
          "internalType": "bytes32",
          "name": "role",
          "type": "bytes32"
        },
        {
          "internalType": "address",
          "name": "account",
          "type": "address"
        }
      ],
      "name": "revokeRole",
      "outputs": [],
      "stateMutability": "nonpayable",
      "type": "function"
    },
    {
      "inputs": [
        {
          "internalType": "bytes4",
          "name": "interfaceId",
          "type": "bytes4"
        }
      ],
      "name": "supportsInterface",
      "outputs": [
        {
          "internalType": "bool",
          "name": "",
          "type": "bool"
        }
      ],
      "stateMutability": "view",
      "type": "function"
    },
    {
      "inputs": [
        {
          "internalType": "address",
          "name": "to",
          "type": "address"
        },
        {
          "internalType": "uint256",
          "name": "amount",
          "type": "uint256"
        }
      ],
      "name": "withdrawTokens",
      "outputs": [],
      "stateMutability": "nonpayable",
      "type": "function"
    }
  ],
  "bytecode": "0x608060405260006003553480156200001657600080fd5b50604051620039c8380380620039c883398181016040528101906200003c91906200029e565b620000516000801b846200010e60201b60201c565b620000837fa49807205ce4d355092ef5a8a18f56e8913cf4a201fbe287825b095693c21775846200010e60201b60201c565b81600160006101000a81548173ffffffffffffffffffffffffffffffffffffffff021916908373ffffffffffffffffffffffffffffffffffffffff16021790555080600260006101000a81548173ffffffffffffffffffffffffffffffffffffffff021916908373ffffffffffffffffffffffffffffffffffffffff1602179055505050506200034d565b6200012082826200012460201b60201c565b5050565b6200013682826200021560201b60201c565b6200021157600160008084815260200190815260200160002060000160008373ffffffffffffffffffffffffffffffffffffffff1673ffffffffffffffffffffffffffffffffffffffff16815260200190815260200160002060006101000a81548160ff021916908315150217905550620001b66200027f60201b60201c565b73ffffffffffffffffffffffffffffffffffffffff168173ffffffffffffffffffffffffffffffffffffffff16837f2f8788117e7eff1d82e926ec794901d17c78024a50270940304540a733656f0d60405160405180910390a45b5050565b600080600084815260200190815260200160002060000160008373ffffffffffffffffffffffffffffffffffffffff1673ffffffffffffffffffffffffffffffffffffffff16815260200190815260200160002060009054906101000a900460ff16905092915050565b600033905090565b600081519050620002988162000333565b92915050565b600080600060608486031215620002ba57620002b96200032e565b5b6000620002ca8682870162000287565b9350506020620002dd8682870162000287565b9250506040620002f08682870162000287565b9150509250925092565b600062000307826200030e565b9050919050565b600073ffffffffffffffffffffffffffffffffffffffff82169050919050565b600080fd5b6200033e81620002fa565b81146200034a57600080fd5b50565b61366b806200035d6000396000f3fe608060405234801561001057600080fd5b506004361061010b5760003560e01c806375b238fc116100a2578063a1580e9011610071578063a1580e90146102c8578063a217fddf146102f8578063b5894ca814610316578063d547741f14610346578063ea0863f5146103625761010b565b806375b238fc1461022c5780637620b1f11461024a5780638a41b3a81461027a57806391d14854146102985761010b565b806336568abe116100de57806336568abe146101a85780633a481f57146101c45780633fc60f27146101e057806367dd74ca146102105761010b565b806301ffc9a71461011057806306b091f914610140578063248a9ca31461015c5780632f2ff15d1461018c575b600080fd5b61012a60048036038101906101259190612452565b610380565b6040516101379190612c2a565b60405180910390f35b61015a60048036038101906101559190612378565b6103fa565b005b610176600480360381019061017191906123e5565b61051d565b6040516101839190612c45565b60405180910390f35b6101a660048036038101906101a19190612412565b61053c565b005b6101c260048036038101906101bd9190612412565b610565565b005b6101de60048036038101906101d9919061247f565b6105e8565b005b6101fa60048036038101906101f59190612589565b61093a565b6040516102079190612de2565b60405180910390f35b61022a60048036038101906102259190612589565b610d16565b005b610234611122565b6040516102419190612c45565b60405180910390f35b610264600480360381019061025f919061231e565b611146565b6040516102719190612c08565b60405180910390f35b6102826111dd565b60405161028f9190612e1f565b60405180910390f35b6102b260048036038101906102ad9190612412565b6111ea565b6040516102bf9190612c2a565b60405180910390f35b6102e260048036038101906102dd9190612589565b611254565b6040516102ef9190612e04565b60405180910390f35b610300611583565b60405161030d9190612c45565b60405180910390f35b610330600480360381019061032b9190612589565b61158a565b60405161033d9190612de2565b60405180910390f35b610360600480360381019061035b9190612412565b61187a565b005b61036a6118a3565b6040516103779190612be6565b60405180910390f35b60007f7965db0b000000000000000000000000000000000000000000000000000000007bffffffffffffffffffffffffffffffffffffffffffffffffffffffff1916827bffffffffffffffffffffffffffffffffffffffffffffffffffffffff191614806103f357506103f282611be3565b5b9050919050565b6104247fa49807205ce4d355092ef5a8a18f56e8913cf4a201fbe287825b095693c21775336111ea565b610463576040517f08c379a000000000000000000000000000000000000000000000000000000000815260040161045a90612d82565b60405180910390fd5b6000600160009054906101000a900473ffffffffffffffffffffffffffffffffffffffff1690508073ffffffffffffffffffffffffffffffffffffffff1663a9059cbb84846040518363ffffffff1660e01b81526004016104c5929190612bbd565b602060405180830381600087803b1580156104df57600080fd5b505af11580156104f3573d6000803e3d6000fd5b505050506040513d601f19601f8201168201806040525081019061051791906123b8565b50505050565b6000806000838152602001908152602001600020600101549050919050565b6105458261051d565b61055681610551611c4d565b611c55565b6105608383611cf2565b505050565b61056d611c4d565b73ffffffffffffffffffffffffffffffffffffffff168173ffffffffffffffffffffffffffffffffffffffff16146105da576040517f08c379a00000000000000000000000000000000000000000000000000000000081526004016105d190612dc2565b60405180910390fd5b6105e48282611dd2565b5050565b6106127fa49807205ce4d355092ef5a8a18f56e8913cf4a201fbe287825b095693c21775336111ea565b610651576040517f08c379a000000000000000000000000000000000000000000000000000000000815260040161064890612d82565b60405180910390fd5b6000885111610695576040517f08c379a000000000000000000000000000000000000000000000000000000000815260040161068c90612da2565b60405180910390fd5b60008551116106d9576040517f08c379a00000000000000000000000000000000000000000000000000000000081526004016106d090612d22565b60405180910390fd5b600083511161071d576040517f08c379a000000000000000000000000000000000000000000000000000000000815260040161071490612c82565b60405180910390fd5b81841061075f576040517f08c379a000000000000000000000000000000000000000000000000000000000815260040161075690612d42565b60405180910390fd5b6000600480549050905060046040518061012001604052806001600281111561078b5761078a613231565b5b81526020018b81526020018a60028111156107a9576107a8613231565b5b81526020018961ffff16815260200188815260200187815260200186815260200185815260200184815250908060018154018082558091505060019003906000526020600020906008020160009091909190915060008201518160000160006101000a81548160ff0219169083600281111561082857610827613231565b5b021790555060208201518160010190805190602001906108499291906120ef565b5060408201518160020160006101000a81548160ff0219169083600281111561087557610874613231565b5b021790555060608201518160020160016101000a81548161ffff021916908361ffff16021790555060808201518160030190805190602001906108b99291906120ef565b5060a0820151816004015560c08201518160050190805190602001906108e09291906120ef565b5060e08201518160060155610100820151816007015550507f178daf4edf7f7dbb188ab330cce37df74ca7f0a1db2cc19a75b9d7ec57a82528816040516109279190612e1f565b60405180910390a1505050505050505050565b610942612175565b816000600260009054906101000a900473ffffffffffffffffffffffffffffffffffffffff169050600073ffffffffffffffffffffffffffffffffffffffff168173ffffffffffffffffffffffffffffffffffffffff16636352211e846040518263ffffffff1660e01b81526004016109bb9190612e1f565b60206040518083038186803b1580156109d357600080fd5b505afa1580156109e7573d6000803e3d6000fd5b505050506040513d601f19601f82011682018060405250810190610a0b919061234b565b73ffffffffffffffffffffffffffffffffffffffff161415610a62576040517f08c379a0000000000000000000000000000000000000000000000000000000008152600401610a5990612d02565b60405180910390fd5b6004600560008681526020019081526020016000205481548110610a8957610a8861328f565b5b9060005260206000209060080201604051806101200160405290816000820160009054906101000a900460ff166002811115610ac857610ac7613231565b5b6002811115610ada57610ad9613231565b5b8152602001600182018054610aee90613156565b80601f0160208091040260200160405190810160405280929190818152602001828054610b1a90613156565b8015610b675780601f10610b3c57610100808354040283529160200191610b67565b820191906000526020600020905b815481529060010190602001808311610b4a57829003601f168201915b505050505081526020016002820160009054906101000a900460ff166002811115610b9557610b94613231565b5b6002811115610ba757610ba6613231565b5b81526020016002820160019054906101000a900461ffff1661ffff1661ffff168152602001600382018054610bdb90613156565b80601f0160208091040260200160405190810160405280929190818152602001828054610c0790613156565b8015610c545780601f10610c2957610100808354040283529160200191610c54565b820191906000526020600020905b815481529060010190602001808311610c3757829003601f168201915b5050505050815260200160048201548152602001600582018054610c7790613156565b80601f0160208091040260200160405190810160405280929190818152602001828054610ca390613156565b8015610cf05780601f10610cc557610100808354040283529160200191610cf0565b820191906000526020600020905b815481529060010190602001808311610cd357829003601f168201915b505050505081526020016006820154815260200160078201548152505092505050919050565b806004805490508110610d5e576040517f08c379a0000000000000000000000000000000000000000000000000000000008152600401610d5590612d62565b60405180910390fd5b600060048381548110610d7457610d7361328f565b5b9060005260206000209060080201905060016002811115610d9857610d97613231565b5b8160000160009054906101000a900460ff166002811115610dbc57610dbb613231565b5b14610dfc576040517f08c379a0000000000000000000000000000000000000000000000000000000008152600401610df390612ce2565b60405180910390fd5b60008160020160019054906101000a900461ffff1661ffff1611610e55576040517f08c379a0000000000000000000000000000000000000000000000000000000008152600401610e4c90612cc2565b60405180910390fd5b80600201600181819054906101000a900461ffff1680929190610e7790613102565b91906101000a81548161ffff021916908361ffff1602179055505060008160020160019054906101000a900461ffff1661ffff161415610edf5760028160000160006101000a81548160ff02191690836002811115610ed957610ed8613231565b5b02179055505b6000600160009054906101000a900473ffffffffffffffffffffffffffffffffffffffff1690508073ffffffffffffffffffffffffffffffffffffffff166323b872dd333085600701546040518463ffffffff1660e01b8152600401610f4793929190612b86565b602060405180830381600087803b158015610f6157600080fd5b505af1158015610f75573d6000803e3d6000fd5b505050506040513d601f19601f82011682018060405250810190610f9991906123b8565b50600060035490506000600260009054906101000a900473ffffffffffffffffffffffffffffffffffffffff1690508073ffffffffffffffffffffffffffffffffffffffff166340c10f1933846040518363ffffffff1660e01b8152600401611003929190612bbd565b600060405180830381600087803b15801561101d57600080fd5b505af1158015611031573d6000803e3d6000fd5b50505050856005600084815260200190815260200160002081905550600660003373ffffffffffffffffffffffffffffffffffffffff1673ffffffffffffffffffffffffffffffffffffffff168152602001908152602001600020829080600181540180825580915050600190039060005260206000200160009091909190915055600360008154809291906110c6906131b9565b9190505550853373ffffffffffffffffffffffffffffffffffffffff167f7d1cd329a11d8807f0374627923b6cd32942b74b38b1accf931d70a507ff739e846040516111129190612e1f565b60405180910390a3505050505050565b7fa49807205ce4d355092ef5a8a18f56e8913cf4a201fbe287825b095693c2177581565b6060600660008373ffffffffffffffffffffffffffffffffffffffff1673ffffffffffffffffffffffffffffffffffffffff1681526020019081526020016000208054806020026020016040519081016040528092919081815260200182805480156111d157602002820191906000526020600020905b8154815260200190600101908083116111bd575b50505050509050919050565b6000600480549050905090565b600080600084815260200190815260200160002060000160008373ffffffffffffffffffffffffffffffffffffffff1673ffffffffffffffffffffffffffffffffffffffff16815260200190815260200160002060009054906101000a900460ff16905092915050565b600081600480549050811061129e576040517f08c379a000000000000000000000000000000000000000000000000000000000815260040161129590612d62565b60405180910390fd5b6000600484815481106112b4576112b361328f565b5b9060005260206000209060080201604051806101200160405290816000820160009054906101000a900460ff1660028111156112f3576112f2613231565b5b600281111561130557611304613231565b5b815260200160018201805461131990613156565b80601f016020809104026020016040519081016040528092919081815260200182805461134590613156565b80156113925780601f1061136757610100808354040283529160200191611392565b820191906000526020600020905b81548152906001019060200180831161137557829003601f168201915b505050505081526020016002820160009054906101000a900460ff1660028111156113c0576113bf613231565b5b60028111156113d2576113d1613231565b5b81526020016002820160019054906101000a900461ffff1661ffff1661ffff16815260200160038201805461140690613156565b80601f016020809104026020016040519081016040528092919081815260200182805461143290613156565b801561147f5780601f106114545761010080835404028352916020019161147f565b820191906000526020600020905b81548152906001019060200180831161146257829003601f168201915b50505050508152602001600482015481526020016005820180546114a290613156565b80601f01602080910402602001604051908101604052809291908181526020018280546114ce90613156565b801561151b5780601f106114f05761010080835404028352916020019161151b565b820191906000526020600020905b8154815290600101906020018083116114fe57829003601f168201915b505050505081526020016006820154815260200160078201548152505090506001600281111561154e5761154d613231565b5b8160000151600281111561156557611564613231565b5b1461157457600092505061157d565b80606001519250505b50919050565b6000801b81565b611592612175565b8160048054905081106115da576040517f08c379a00000000000000000000000000000000000000000000000000000000081526004016115d190612d62565b60405180910390fd5b600483815481106115ee576115ed61328f565b5b9060005260206000209060080201604051806101200160405290816000820160009054906101000a900460ff16600281111561162d5761162c613231565b5b600281111561163f5761163e613231565b5b815260200160018201805461165390613156565b80601f016020809104026020016040519081016040528092919081815260200182805461167f90613156565b80156116cc5780601f106116a1576101008083540402835291602001916116cc565b820191906000526020600020905b8154815290600101906020018083116116af57829003601f168201915b505050505081526020016002820160009054906101000a900460ff1660028111156116fa576116f9613231565b5b600281111561170c5761170b613231565b5b81526020016002820160019054906101000a900461ffff1661ffff1661ffff16815260200160038201805461174090613156565b80601f016020809104026020016040519081016040528092919081815260200182805461176c90613156565b80156117b95780601f1061178e576101008083540402835291602001916117b9565b820191906000526020600020905b81548152906001019060200180831161179c57829003601f168201915b50505050508152602001600482015481526020016005820180546117dc90613156565b80601f016020809104026020016040519081016040528092919081815260200182805461180890613156565b80156118555780601f1061182a57610100808354040283529160200191611855565b820191906000526020600020905b81548152906001019060200180831161183857829003601f168201915b5050505050815260200160068201548152602001600782015481525050915050919050565b6118838261051d565b6118948161188f611c4d565b611c55565b61189e8383611dd2565b505050565b6060600060048054905067ffffffffffffffff8111156118c6576118c56132be565b5b6040519080825280602002602001820160405280156118ff57816020015b6118ec612175565b8152602001906001900390816118e45790505b50905060005b600480549050811015611bdb57600481815481106119265761192561328f565b5b9060005260206000209060080201604051806101200160405290816000820160009054906101000a900460ff16600281111561196557611964613231565b5b600281111561197757611976613231565b5b815260200160018201805461198b90613156565b80601f01602080910402602001604051908101604052809291908181526020018280546119b790613156565b8015611a045780601f106119d957610100808354040283529160200191611a04565b820191906000526020600020905b8154815290600101906020018083116119e757829003601f168201915b505050505081526020016002820160009054906101000a900460ff166002811115611a3257611a31613231565b5b6002811115611a4457611a43613231565b5b81526020016002820160019054906101000a900461ffff1661ffff1661ffff168152602001600382018054611a7890613156565b80601f0160208091040260200160405190810160405280929190818152602001828054611aa490613156565b8015611af15780601f10611ac657610100808354040283529160200191611af1565b820191906000526020600020905b815481529060010190602001808311611ad457829003601f168201915b5050505050815260200160048201548152602001600582018054611b1490613156565b80601f0160208091040260200160405190810160405280929190818152602001828054611b4090613156565b8015611b8d5780601f10611b6257610100808354040283529160200191611b8d565b820191906000526020600020905b815481529060010190602001808311611b7057829003601f168201915b5050505050815260200160068201548152602001600782015481525050828281518110611bbd57611bbc61328f565b5b60200260200101819052508080611bd3906131b9565b915050611905565b508091505090565b60007f01ffc9a7000000000000000000000000000000000000000000000000000000007bffffffffffffffffffffffffffffffffffffffffffffffffffffffff1916827bffffffffffffffffffffffffffffffffffffffffffffffffffffffff1916149050919050565b600033905090565b611c5f82826111ea565b611cee57611c848173ffffffffffffffffffffffffffffffffffffffff166014611eb3565b611c928360001c6020611eb3565b604051602001611ca3929190612b4c565b6040516020818303038152906040526040517f08c379a0000000000000000000000000000000000000000000000000000000008152600401611ce59190612c60565b60405180910390fd5b5050565b611cfc82826111ea565b611dce57600160008084815260200190815260200160002060000160008373ffffffffffffffffffffffffffffffffffffffff1673ffffffffffffffffffffffffffffffffffffffff16815260200190815260200160002060006101000a81548160ff021916908315150217905550611d73611c4d565b73ffffffffffffffffffffffffffffffffffffffff168173ffffffffffffffffffffffffffffffffffffffff16837f2f8788117e7eff1d82e926ec794901d17c78024a50270940304540a733656f0d60405160405180910390a45b5050565b611ddc82826111ea565b15611eaf57600080600084815260200190815260200160002060000160008373ffffffffffffffffffffffffffffffffffffffff1673ffffffffffffffffffffffffffffffffffffffff16815260200190815260200160002060006101000a81548160ff021916908315150217905550611e54611c4d565b73ffffffffffffffffffffffffffffffffffffffff168173ffffffffffffffffffffffffffffffffffffffff16837ff6391f5c32d9c69d2a47ea670b442974b53935d1edc7fd64eb21e047a839171b60405160405180910390a45b5050565b606060006002836002611ec69190612f90565b611ed09190612f3a565b67ffffffffffffffff811115611ee957611ee86132be565b5b6040519080825280601f01601f191660200182016040528015611f1b5781602001600182028036833780820191505090505b5090507f300000000000000000000000000000000000000000000000000000000000000081600081518110611f5357611f5261328f565b5b60200101907effffffffffffffffffffffffffffffffffffffffffffffffffffffffffffff1916908160001a9053507f780000000000000000000000000000000000000000000000000000000000000081600181518110611fb757611fb661328f565b5b60200101907effffffffffffffffffffffffffffffffffffffffffffffffffffffffffffff1916908160001a90535060006001846002611ff79190612f90565b6120019190612f3a565b90505b60018111156120a1577f3031323334353637383961626364656600000000000000000000000000000000600f8616601081106120435761204261328f565b5b1a60f81b82828151811061205a5761205961328f565b5b60200101907effffffffffffffffffffffffffffffffffffffffffffffffffffffffffffff1916908160001a905350600485901c94508061209a9061312c565b9050612004565b50600084146120e5576040517f08c379a00000000000000000000000000000000000000000000000000000000081526004016120dc90612ca2565b60405180910390fd5b8091505092915050565b8280546120fb90613156565b90600052602060002090601f01602090048101928261211d5760008555612164565b82601f1061213657805160ff1916838001178555612164565b82800160010185558215612164579182015b82811115612163578251825591602001919060010190612148565b5b50905061217191906121e9565b5090565b6040518061012001604052806000600281111561219557612194613231565b5b815260200160608152602001600060028111156121b5576121b4613231565b5b8152602001600061ffff16815260200160608152602001600081526020016060815260200160008152602001600081525090565b5b808211156122025760008160009055506001016121ea565b5090565b600061221961221484612e5f565b612e3a565b905082815260208101848484011115612235576122346132f2565b5b6122408482856130c0565b509392505050565b6000813590506122578161359b565b92915050565b60008151905061226c8161359b565b92915050565b600081519050612281816135b2565b92915050565b600081359050612296816135c9565b92915050565b6000813590506122ab816135e0565b92915050565b6000813590506122c0816135f7565b92915050565b600082601f8301126122db576122da6132ed565b5b81356122eb848260208601612206565b91505092915050565b60008135905061230381613607565b92915050565b6000813590506123188161361e565b92915050565b600060208284031215612334576123336132fc565b5b600061234284828501612248565b91505092915050565b600060208284031215612361576123606132fc565b5b600061236f8482850161225d565b91505092915050565b6000806040838503121561238f5761238e6132fc565b5b600061239d85828601612248565b92505060206123ae85828601612309565b9150509250929050565b6000602082840312156123ce576123cd6132fc565b5b60006123dc84828501612272565b91505092915050565b6000602082840312156123fb576123fa6132fc565b5b600061240984828501612287565b91505092915050565b60008060408385031215612429576124286132fc565b5b600061243785828601612287565b925050602061244885828601612248565b9150509250929050565b600060208284031215612468576124676132fc565b5b60006124768482850161229c565b91505092915050565b600080600080600080600080610100898b0312156124a05761249f6132fc565b5b600089013567ffffffffffffffff8111156124be576124bd6132f7565b5b6124ca8b828c016122c6565b98505060206124db8b828c016122b1565b97505060406124ec8b828c016122f4565b965050606089013567ffffffffffffffff81111561250d5761250c6132f7565b5b6125198b828c016122c6565b955050608061252a8b828c01612309565b94505060a089013567ffffffffffffffff81111561254b5761254a6132f7565b5b6125578b828c016122c6565b93505060c06125688b828c01612309565b92505060e06125798b828c01612309565b9150509295985092959890939650565b60006020828403121561259f5761259e6132fc565b5b60006125ad84828501612309565b91505092915050565b60006125c2838361296a565b905092915050565b60006125d68383612b2e565b60208301905092915050565b6125eb81612fea565b82525050565b60006125fc82612eb0565b6126068185612eeb565b93508360208202850161261885612e90565b8060005b85811015612654578484038952815161263585826125b6565b945061264083612ed1565b925060208a0199505060018101905061261c565b50829750879550505050505092915050565b600061267182612ebb565b61267b8185612efc565b935061268683612ea0565b8060005b838110156126b757815161269e88826125ca565b97506126a983612ede565b92505060018101905061268a565b5085935050505092915050565b6126cd81612ffc565b82525050565b6126dc81613008565b82525050565b6126eb8161309c565b82525050565b6126fa816130ae565b82525050565b600061270b82612ec6565b6127158185612f0d565b93506127258185602086016130cf565b61272e81613301565b840191505092915050565b600061274482612ec6565b61274e8185612f1e565b935061275e8185602086016130cf565b61276781613301565b840191505092915050565b600061277d82612ec6565b6127878185612f2f565b93506127978185602086016130cf565b80840191505092915050565b60006127b0601383612f1e565b91506127bb82613312565b602082019050919050565b60006127d3602083612f1e565b91506127de8261333b565b602082019050919050565b60006127f6601283612f1e565b915061280182613364565b602082019050919050565b6000612819601b83612f1e565b91506128248261338d565b602082019050919050565b600061283c601483612f1e565b9150612847826133b6565b602082019050919050565b600061285f601583612f1e565b915061286a826133df565b602082019050919050565b6000612882602e83612f1e565b915061288d82613408565b604082019050919050565b60006128a5601483612f1e565b91506128b082613457565b602082019050919050565b60006128c8601683612f1e565b91506128d382613480565b602082019050919050565b60006128eb601483612f1e565b91506128f6826134a9565b602082019050919050565b600061290e601783612f2f565b9150612919826134d2565b601782019050919050565b6000612931601183612f2f565b915061293c826134fb565b601182019050919050565b6000612954602f83612f1e565b915061295f82613524565b604082019050919050565b60006101208301600083015161298360008601826126f1565b506020830151848203602086015261299b8282612700565b91505060408301516129b060408601826126e2565b5060608301516129c36060860182612b10565b50608083015184820360808601526129db8282612700565b91505060a08301516129f060a0860182612b2e565b5060c083015184820360c0860152612a088282612700565b91505060e0830151612a1d60e0860182612b2e565b50610100830151612a32610100860182612b2e565b508091505092915050565b600061012083016000830151612a5660008601826126f1565b5060208301518482036020860152612a6e8282612700565b9150506040830151612a8360408601826126e2565b506060830151612a966060860182612b10565b5060808301518482036080860152612aae8282612700565b91505060a0830151612ac360a0860182612b2e565b5060c083015184820360c0860152612adb8282612700565b91505060e0830151612af060e0860182612b2e565b50610100830151612b05610100860182612b2e565b508091505092915050565b612b1981613064565b82525050565b612b2881613064565b82525050565b612b3781613092565b82525050565b612b4681613092565b82525050565b6000612b5782612901565b9150612b638285612772565b9150612b6e82612924565b9150612b7a8284612772565b91508190509392505050565b6000606082019050612b9b60008301866125e2565b612ba860208301856125e2565b612bb56040830184612b3d565b949350505050565b6000604082019050612bd260008301856125e2565b612bdf6020830184612b3d565b9392505050565b60006020820190508181036000830152612c0081846125f1565b905092915050565b60006020820190508181036000830152612c228184612666565b905092915050565b6000602082019050612c3f60008301846126c4565b92915050565b6000602082019050612c5a60008301846126d3565b92915050565b60006020820190508181036000830152612c7a8184612739565b905092915050565b60006020820190508181036000830152612c9b816127a3565b9050919050565b60006020820190508181036000830152612cbb816127c6565b9050919050565b60006020820190508181036000830152612cdb816127e9565b9050919050565b60006020820190508181036000830152612cfb8161280c565b9050919050565b60006020820190508181036000830152612d1b8161282f565b9050919050565b60006020820190508181036000830152612d3b81612852565b9050919050565b60006020820190508181036000830152612d5b81612875565b9050919050565b60006020820190508181036000830152612d7b81612898565b9050919050565b60006020820190508181036000830152612d9b816128bb565b9050919050565b60006020820190508181036000830152612dbb816128de565b9050919050565b60006020820190508181036000830152612ddb81612947565b9050919050565b60006020820190508181036000830152612dfc8184612a3d565b905092915050565b6000602082019050612e196000830184612b1f565b92915050565b6000602082019050612e346000830184612b3d565b92915050565b6000612e44612e55565b9050612e508282613188565b919050565b6000604051905090565b600067ffffffffffffffff821115612e7a57612e796132be565b5b612e8382613301565b9050602081019050919050565b6000819050602082019050919050565b6000819050602082019050919050565b600081519050919050565b600081519050919050565b600081519050919050565b6000602082019050919050565b6000602082019050919050565b600082825260208201905092915050565b600082825260208201905092915050565b600082825260208201905092915050565b600082825260208201905092915050565b600081905092915050565b6000612f4582613092565b9150612f5083613092565b9250827fffffffffffffffffffffffffffffffffffffffffffffffffffffffffffffffff03821115612f8557612f84613202565b5b828201905092915050565b6000612f9b82613092565b9150612fa683613092565b9250817fffffffffffffffffffffffffffffffffffffffffffffffffffffffffffffffff0483118215151615612fdf57612fde613202565b5b828202905092915050565b6000612ff582613072565b9050919050565b60008115159050919050565b6000819050919050565b60007fffffffff0000000000000000000000000000000000000000000000000000000082169050919050565b600081905061304c82613573565b919050565b600081905061305f82613587565b919050565b600061ffff82169050919050565b600073ffffffffffffffffffffffffffffffffffffffff82169050919050565b6000819050919050565b60006130a78261303e565b9050919050565b60006130b982613051565b9050919050565b82818337600083830152505050565b60005b838110156130ed5780820151818401526020810190506130d2565b838111156130fc576000848401525b50505050565b600061310d82613064565b9150600082141561312157613120613202565b5b600182039050919050565b600061313782613092565b9150600082141561314b5761314a613202565b5b600182039050919050565b6000600282049050600182168061316e57607f821691505b6020821081141561318257613181613260565b5b50919050565b61319182613301565b810181811067ffffffffffffffff821117156131b0576131af6132be565b5b80604052505050565b60006131c482613092565b91507fffffffffffffffffffffffffffffffffffffffffffffffffffffffffffffffff8214156131f7576131f6613202565b5b600182019050919050565b7f4e487b7100000000000000000000000000000000000000000000000000000000600052601160045260246000fd5b7f4e487b7100000000000000000000000000000000000000000000000000000000600052602160045260246000fd5b7f4e487b7100000000000000000000000000000000000000000000000000000000600052602260045260246000fd5b7f4e487b7100000000000000000000000000000000000000000000000000000000600052603260045260246000fd5b7f4e487b7100000000000000000000000000000000000000000000000000000000600052604160045260246000fd5b600080fd5b600080fd5b600080fd5b600080fd5b6000601f19601f8301169050919050565b7f72657175697265206172726976616c436f646500000000000000000000000000600082015250565b7f537472696e67733a20686578206c656e67746820696e73756666696369656e74600082015250565b7f6e6f20617661696c61626c652073656174730000000000000000000000000000600082015250565b7f7469636b6574206973206e6f74206f70656e20666f722073616c650000000000600082015250565b7f7469636b657420646f65736e2774206578697374000000000000000000000000600082015250565b7f7265717569726520646570617274757265436f64650000000000000000000000600082015250565b7f6172726976616c54696d65206d7573742062652067726561746572207468616e60008201527f2064657061727475726554696d65000000000000000000000000000000000000602082015250565b7f666c6967687420646f65736e2774206578697374000000000000000000000000600082015250565b7f43616c6c6572206973206e6f7420616e2061646d696e00000000000000000000600082015250565b7f7265717569726520666c696768744e756d626572000000000000000000000000600082015250565b7f416363657373436f6e74726f6c3a206163636f756e7420000000000000000000600082015250565b7f206973206d697373696e6720726f6c6520000000000000000000000000000000600082015250565b7f416363657373436f6e74726f6c3a2063616e206f6e6c792072656e6f756e636560008201527f20726f6c657320666f722073656c660000000000000000000000000000000000602082015250565b6003811061358457613583613231565b5b50565b6003811061359857613597613231565b5b50565b6135a481612fea565b81146135af57600080fd5b50565b6135bb81612ffc565b81146135c657600080fd5b50565b6135d281613008565b81146135dd57600080fd5b50565b6135e981613012565b81146135f457600080fd5b50565b6003811061360457600080fd5b50565b61361081613064565b811461361b57600080fd5b50565b61362781613092565b811461363257600080fd5b5056fea2646970667358221220033847bb95789847aee6a9e529ca50e47ebcd1e82f8cab0ccc30107b7d073e5964736f6c63430008070033",
  "linkReferences": {},
  "deployedLinkReferences": {}
}