{
  "_format": "hh-sol-artifact-1",
  "contractName": "MVPTicketSale",
  "sourceName": "contracts/MVPTicketSale.sol",
  "abi": [
    {
      "inputs": [
        {
          "internalType": "address",
          "name": "admin",
          "type": "address"
        },
        {
          "internalType": "address",
          "name": "tokenContract",
          "type": "address"
        },
        {
          "internalType": "address",
          "name": "ticketContract",
          "type": "address"
        }
      ],
      "stateMutability": "nonpayable",
      "type": "constructor"
    },
    {
      "anonymous": false,
      "inputs": [
        {
          "indexed": false,
          "internalType": "uint256",
          "name": "flightId",
          "type": "uint256"
        }
      ],
      "name": "AddedFlight",
      "type": "event"
    },
    {
      "anonymous": false,
      "inputs": [
        {
          "indexed": true,
          "internalType": "address",
          "name": "account",
          "type": "address"
        },
        {
          "indexed": true,
          "internalType": "uint256",
          "name": "flightId",
          "type": "uint256"
        },
        {
          "indexed": false,
          "internalType": "uint256",
          "name": "ticketId",
          "type": "uint256"
        }
      ],
      "name": "PurchasedTicket",
      "type": "event"
    },
    {
      "anonymous": false,
      "inputs": [
        {
          "indexed": true,
          "internalType": "bytes32",
          "name": "role",
          "type": "bytes32"
        },
        {
          "indexed": true,
          "internalType": "bytes32",
          "name": "previousAdminRole",
          "type": "bytes32"
        },
        {
          "indexed": true,
          "internalType": "bytes32",
          "name": "newAdminRole",
          "type": "bytes32"
        }
      ],
      "name": "RoleAdminChanged",
      "type": "event"
    },
    {
      "anonymous": false,
      "inputs": [
        {
          "indexed": true,
          "internalType": "bytes32",
          "name": "role",
          "type": "bytes32"
        },
        {
          "indexed": true,
          "internalType": "address",
          "name": "account",
          "type": "address"
        },
        {
          "indexed": true,
          "internalType": "address",
          "name": "sender",
          "type": "address"
        }
      ],
      "name": "RoleGranted",
      "type": "event"
    },
    {
      "anonymous": false,
      "inputs": [
        {
          "indexed": true,
          "internalType": "bytes32",
          "name": "role",
          "type": "bytes32"
        },
        {
          "indexed": true,
          "internalType": "address",
          "name": "account",
          "type": "address"
        },
        {
          "indexed": true,
          "internalType": "address",
          "name": "sender",
          "type": "address"
        }
      ],
      "name": "RoleRevoked",
      "type": "event"
    },
    {
      "inputs": [],
      "name": "ADMIN_ROLE",
      "outputs": [
        {
          "internalType": "bytes32",
          "name": "",
          "type": "bytes32"
        }
      ],
      "stateMutability": "view",
      "type": "function"
    },
    {
      "inputs": [],
      "name": "DEFAULT_ADMIN_ROLE",
      "outputs": [
        {
          "internalType": "bytes32",
          "name": "",
          "type": "bytes32"
        }
      ],
      "stateMutability": "view",
      "type": "function"
    },
    {
      "inputs": [
        {
          "internalType": "address",
          "name": "account",
          "type": "address"
        }
      ],
      "name": "accountTicketIds",
      "outputs": [
        {
          "internalType": "uint256[]",
          "name": "",
          "type": "uint256[]"
        }
      ],
      "stateMutability": "view",
      "type": "function"
    },
    {
      "inputs": [
        {
          "internalType": "string",
          "name": "flightNumber",
          "type": "string"
        },
        {
          "internalType": "enum MVPTicketSale.FlightClass",
          "name": "flightClass",
          "type": "uint8"
        },
        {
          "internalType": "uint16",
          "name": "numSeats",
          "type": "uint16"
        },
        {
          "internalType": "string",
          "name": "departureCode",
          "type": "string"
        },
        {
          "internalType": "uint256",
          "name": "departureTime",
          "type": "uint256"
        },
        {
          "internalType": "string",
          "name": "arrivalCode",
          "type": "string"
        },
        {
          "internalType": "uint256",
          "name": "arrivalTime",
          "type": "uint256"
        },
        {
          "internalType": "uint256",
          "name": "price",
          "type": "uint256"
        }
      ],
      "name": "addFlight",
      "outputs": [],
      "stateMutability": "nonpayable",
      "type": "function"
    },
    {
      "inputs": [
        {
          "internalType": "uint256",
          "name": "flightId",
          "type": "uint256"
        }
      ],
      "name": "buyTicket",
      "outputs": [],
      "stateMutability": "nonpayable",
      "type": "function"
    },
    {
      "inputs": [
        {
          "internalType": "uint256",
          "name": "flightId",
          "type": "uint256"
        }
      ],
      "name": "flightById",
      "outputs": [
        {
          "components": [
            {
              "internalType": "uint256",
              "name": "flightID",
              "type": "uint256"
            },
            {
              "internalType": "enum MVPTicketSale.FlightSaleStatus",
              "name": "saleStatus",
              "type": "uint8"
            },
            {
              "internalType": "string",
              "name": "flightNumber",
              "type": "string"
            },
            {
              "internalType": "enum MVPTicketSale.FlightClass",
              "name": "class",
              "type": "uint8"
            },
            {
              "internalType": "uint16",
              "name": "availableSeats",
              "type": "uint16"
            },
            {
              "internalType": "string",
              "name": "departureCode",
              "type": "string"
            },
            {
              "internalType": "uint256",
              "name": "departureTime",
              "type": "uint256"
            },
            {
              "internalType": "string",
              "name": "arrivalCode",
              "type": "string"
            },
            {
              "internalType": "uint256",
              "name": "arrivalTime",
              "type": "uint256"
            },
            {
              "internalType": "uint256",
              "name": "price",
              "type": "uint256"
            }
          ],
          "internalType": "struct MVPTicketSale.Flight",
          "name": "",
          "type": "tuple"
        }
      ],
      "stateMutability": "view",
      "type": "function"
    },
    {
      "inputs": [
        {
          "internalType": "uint256",
          "name": "ticketId",
          "type": "uint256"
        }
      ],
      "name": "flightByTicketId",
      "outputs": [
        {
          "components": [
            {
              "internalType": "uint256",
              "name": "flightID",
              "type": "uint256"
            },
            {
              "internalType": "enum MVPTicketSale.FlightSaleStatus",
              "name": "saleStatus",
              "type": "uint8"
            },
            {
              "internalType": "string",
              "name": "flightNumber",
              "type": "string"
            },
            {
              "internalType": "enum MVPTicketSale.FlightClass",
              "name": "class",
              "type": "uint8"
            },
            {
              "internalType": "uint16",
              "name": "availableSeats",
              "type": "uint16"
            },
            {
              "internalType": "string",
              "name": "departureCode",
              "type": "string"
            },
            {
              "internalType": "uint256",
              "name": "departureTime",
              "type": "uint256"
            },
            {
              "internalType": "string",
              "name": "arrivalCode",
              "type": "string"
            },
            {
              "internalType": "uint256",
              "name": "arrivalTime",
              "type": "uint256"
            },
            {
              "internalType": "uint256",
              "name": "price",
              "type": "uint256"
            }
          ],
          "internalType": "struct MVPTicketSale.Flight",
          "name": "",
          "type": "tuple"
        }
      ],
      "stateMutability": "view",
      "type": "function"
    },
    {
      "inputs": [],
      "name": "flights",
      "outputs": [
        {
          "components": [
            {
              "internalType": "uint256",
              "name": "flightID",
              "type": "uint256"
            },
            {
              "internalType": "enum MVPTicketSale.FlightSaleStatus",
              "name": "saleStatus",
              "type": "uint8"
            },
            {
              "internalType": "string",
              "name": "flightNumber",
              "type": "string"
            },
            {
              "internalType": "enum MVPTicketSale.FlightClass",
              "name": "class",
              "type": "uint8"
            },
            {
              "internalType": "uint16",
              "name": "availableSeats",
              "type": "uint16"
            },
            {
              "internalType": "string",
              "name": "departureCode",
              "type": "string"
            },
            {
              "internalType": "uint256",
              "name": "departureTime",
              "type": "uint256"
            },
            {
              "internalType": "string",
              "name": "arrivalCode",
              "type": "string"
            },
            {
              "internalType": "uint256",
              "name": "arrivalTime",
              "type": "uint256"
            },
            {
              "internalType": "uint256",
              "name": "price",
              "type": "uint256"
            }
          ],
          "internalType": "struct MVPTicketSale.Flight[]",
          "name": "",
          "type": "tuple[]"
        }
      ],
      "stateMutability": "view",
      "type": "function"
    },
    {
      "inputs": [
        {
          "internalType": "bytes32",
          "name": "role",
          "type": "bytes32"
        }
      ],
      "name": "getRoleAdmin",
      "outputs": [
        {
          "internalType": "bytes32",
          "name": "",
          "type": "bytes32"
        }
      ],
      "stateMutability": "view",
      "type": "function"
    },
    {
      "inputs": [
        {
          "internalType": "bytes32",
          "name": "role",
          "type": "bytes32"
        },
        {
          "internalType": "address",
          "name": "account",
          "type": "address"
        }
      ],
      "name": "grantRole",
      "outputs": [],
      "stateMutability": "nonpayable",
      "type": "function"
    },
    {
      "inputs": [
        {
          "internalType": "bytes32",
          "name": "role",
          "type": "bytes32"
        },
        {
          "internalType": "address",
          "name": "account",
          "type": "address"
        }
      ],
      "name": "hasRole",
      "outputs": [
        {
          "internalType": "bool",
          "name": "",
          "type": "bool"
        }
      ],
      "stateMutability": "view",
      "type": "function"
    },
    {
      "inputs": [
        {
          "internalType": "uint256",
          "name": "flightId",
          "type": "uint256"
        }
      ],
      "name": "numAvailableSeats",
      "outputs": [
        {
          "internalType": "uint16",
          "name": "",
          "type": "uint16"
        }
      ],
      "stateMutability": "view",
      "type": "function"
    },
    {
      "inputs": [],
      "name": "numFlights",
      "outputs": [
        {
          "internalType": "uint256",
          "name": "",
          "type": "uint256"
        }
      ],
      "stateMutability": "view",
      "type": "function"
    },
    {
      "inputs": [
        {
          "internalType": "bytes32",
          "name": "role",
          "type": "bytes32"
        },
        {
          "internalType": "address",
          "name": "account",
          "type": "address"
        }
      ],
      "name": "renounceRole",
      "outputs": [],
      "stateMutability": "nonpayable",
      "type": "function"
    },
    {
      "inputs": [
        {
          "internalType": "bytes32",
          "name": "role",
          "type": "bytes32"
        },
        {
          "internalType": "address",
          "name": "account",
          "type": "address"
        }
      ],
      "name": "revokeRole",
      "outputs": [],
      "stateMutability": "nonpayable",
      "type": "function"
    },
    {
      "inputs": [
        {
          "internalType": "bytes4",
          "name": "interfaceId",
          "type": "bytes4"
        }
      ],
      "name": "supportsInterface",
      "outputs": [
        {
          "internalType": "bool",
          "name": "",
          "type": "bool"
        }
      ],
      "stateMutability": "view",
      "type": "function"
    },
    {
      "inputs": [
        {
          "internalType": "address",
          "name": "to",
          "type": "address"
        },
        {
          "internalType": "uint256",
          "name": "amount",
          "type": "uint256"
        }
      ],
      "name": "withdrawTokens",
      "outputs": [],
      "stateMutability": "nonpayable",
      "type": "function"
    }
  ],
  "bytecode": "0x608060405260006003553480156200001657600080fd5b5060405162003a3238038062003a3283398181016040528101906200003c91906200029e565b620000516000801b846200010e60201b60201c565b620000837fa49807205ce4d355092ef5a8a18f56e8913cf4a201fbe287825b095693c21775846200010e60201b60201c565b81600160006101000a81548173ffffffffffffffffffffffffffffffffffffffff021916908373ffffffffffffffffffffffffffffffffffffffff16021790555080600260006101000a81548173ffffffffffffffffffffffffffffffffffffffff021916908373ffffffffffffffffffffffffffffffffffffffff1602179055505050506200034d565b6200012082826200012460201b60201c565b5050565b6200013682826200021560201b60201c565b6200021157600160008084815260200190815260200160002060000160008373ffffffffffffffffffffffffffffffffffffffff1673ffffffffffffffffffffffffffffffffffffffff16815260200190815260200160002060006101000a81548160ff021916908315150217905550620001b66200027f60201b60201c565b73ffffffffffffffffffffffffffffffffffffffff168173ffffffffffffffffffffffffffffffffffffffff16837f2f8788117e7eff1d82e926ec794901d17c78024a50270940304540a733656f0d60405160405180910390a45b5050565b600080600084815260200190815260200160002060000160008373ffffffffffffffffffffffffffffffffffffffff1673ffffffffffffffffffffffffffffffffffffffff16815260200190815260200160002060009054906101000a900460ff16905092915050565b600033905090565b600081519050620002988162000333565b92915050565b600080600060608486031215620002ba57620002b96200032e565b5b6000620002ca8682870162000287565b9350506020620002dd8682870162000287565b9250506040620002f08682870162000287565b9150509250925092565b600062000307826200030e565b9050919050565b600073ffffffffffffffffffffffffffffffffffffffff82169050919050565b600080fd5b6200033e81620002fa565b81146200034a57600080fd5b50565b6136d5806200035d6000396000f3fe608060405234801561001057600080fd5b506004361061010b5760003560e01c806375b238fc116100a2578063a1580e9011610071578063a1580e90146102c8578063a217fddf146102f8578063b5894ca814610316578063d547741f14610346578063ea0863f5146103625761010b565b806375b238fc1461022c5780637620b1f11461024a5780638a41b3a81461027a57806391d14854146102985761010b565b806336568abe116100de57806336568abe146101a85780633a481f57146101c45780633fc60f27146101e057806367dd74ca146102105761010b565b806301ffc9a71461011057806306b091f914610140578063248a9ca31461015c5780632f2ff15d1461018c575b600080fd5b61012a60048036038101906101259190612492565b610380565b6040516101379190612c94565b60405180910390f35b61015a600480360381019061015591906123b8565b6103fa565b005b61017660048036038101906101719190612425565b61051d565b6040516101839190612caf565b60405180910390f35b6101a660048036038101906101a19190612452565b61053c565b005b6101c260048036038101906101bd9190612452565b610565565b005b6101de60048036038101906101d991906124bf565b6105e8565b005b6101fa60048036038101906101f591906125c9565b61094b565b6040516102079190612e4c565b60405180910390f35b61022a600480360381019061022591906125c9565b610d31565b005b61023461113d565b6040516102419190612caf565b60405180910390f35b610264600480360381019061025f919061235e565b611161565b6040516102719190612c72565b60405180910390f35b6102826111f8565b60405161028f9190612e89565b60405180910390f35b6102b260048036038101906102ad9190612452565b611205565b6040516102bf9190612c94565b60405180910390f35b6102e260048036038101906102dd91906125c9565b61126f565b6040516102ef9190612e6e565b60405180910390f35b6103006115a8565b60405161030d9190612caf565b60405180910390f35b610330600480360381019061032b91906125c9565b6115af565b60405161033d9190612e4c565b60405180910390f35b610360600480360381019061035b9190612452565b6118a9565b005b61036a6118d2565b6040516103779190612c50565b60405180910390f35b60007f7965db0b000000000000000000000000000000000000000000000000000000007bffffffffffffffffffffffffffffffffffffffffffffffffffffffff1916827bffffffffffffffffffffffffffffffffffffffffffffffffffffffff191614806103f357506103f282611c1c565b5b9050919050565b6104247fa49807205ce4d355092ef5a8a18f56e8913cf4a201fbe287825b095693c2177533611205565b610463576040517f08c379a000000000000000000000000000000000000000000000000000000000815260040161045a90612dec565b60405180910390fd5b6000600160009054906101000a900473ffffffffffffffffffffffffffffffffffffffff1690508073ffffffffffffffffffffffffffffffffffffffff1663a9059cbb84846040518363ffffffff1660e01b81526004016104c5929190612c27565b602060405180830381600087803b1580156104df57600080fd5b505af11580156104f3573d6000803e3d6000fd5b505050506040513d601f19601f8201168201806040525081019061051791906123f8565b50505050565b6000806000838152602001908152602001600020600101549050919050565b6105458261051d565b61055681610551611c86565b611c8e565b6105608383611d2b565b505050565b61056d611c86565b73ffffffffffffffffffffffffffffffffffffffff168173ffffffffffffffffffffffffffffffffffffffff16146105da576040517f08c379a00000000000000000000000000000000000000000000000000000000081526004016105d190612e2c565b60405180910390fd5b6105e48282611e0b565b5050565b6106127fa49807205ce4d355092ef5a8a18f56e8913cf4a201fbe287825b095693c2177533611205565b610651576040517f08c379a000000000000000000000000000000000000000000000000000000000815260040161064890612dec565b60405180910390fd5b6000885111610695576040517f08c379a000000000000000000000000000000000000000000000000000000000815260040161068c90612e0c565b60405180910390fd5b60008551116106d9576040517f08c379a00000000000000000000000000000000000000000000000000000000081526004016106d090612d8c565b60405180910390fd5b600083511161071d576040517f08c379a000000000000000000000000000000000000000000000000000000000815260040161071490612cec565b60405180910390fd5b81841061075f576040517f08c379a000000000000000000000000000000000000000000000000000000000815260040161075690612dac565b60405180910390fd5b600060048054905090506004604051806101400160405280838152602001600160028111156107915761079061329b565b5b81526020018b81526020018a60028111156107af576107ae61329b565b5b81526020018961ffff1681526020018881526020018781526020018681526020018581526020018481525090806001815401808255809150506001900390600052602060002090600902016000909190919091506000820151816000015560208201518160010160006101000a81548160ff021916908360028111156108385761083761329b565b5b02179055506040820151816002019080519060200190610859929190612128565b5060608201518160030160006101000a81548160ff021916908360028111156108855761088461329b565b5b021790555060808201518160030160016101000a81548161ffff021916908361ffff16021790555060a08201518160040190805190602001906108c9929190612128565b5060c0820151816005015560e08201518160060190805190602001906108f0929190612128565b506101008201518160070155610120820151816008015550507f178daf4edf7f7dbb188ab330cce37df74ca7f0a1db2cc19a75b9d7ec57a82528816040516109389190612e89565b60405180910390a1505050505050505050565b6109536121ae565b816000600260009054906101000a900473ffffffffffffffffffffffffffffffffffffffff169050600073ffffffffffffffffffffffffffffffffffffffff168173ffffffffffffffffffffffffffffffffffffffff16636352211e846040518263ffffffff1660e01b81526004016109cc9190612e89565b60206040518083038186803b1580156109e457600080fd5b505afa1580156109f8573d6000803e3d6000fd5b505050506040513d601f19601f82011682018060405250810190610a1c919061238b565b73ffffffffffffffffffffffffffffffffffffffff161415610a73576040517f08c379a0000000000000000000000000000000000000000000000000000000008152600401610a6a90612d6c565b60405180910390fd5b6004600560008681526020019081526020016000205481548110610a9a57610a996132f9565b5b906000526020600020906009020160405180610140016040529081600082015481526020016001820160009054906101000a900460ff166002811115610ae357610ae261329b565b5b6002811115610af557610af461329b565b5b8152602001600282018054610b09906131c0565b80601f0160208091040260200160405190810160405280929190818152602001828054610b35906131c0565b8015610b825780601f10610b5757610100808354040283529160200191610b82565b820191906000526020600020905b815481529060010190602001808311610b6557829003601f168201915b505050505081526020016003820160009054906101000a900460ff166002811115610bb057610baf61329b565b5b6002811115610bc257610bc161329b565b5b81526020016003820160019054906101000a900461ffff1661ffff1661ffff168152602001600482018054610bf6906131c0565b80601f0160208091040260200160405190810160405280929190818152602001828054610c22906131c0565b8015610c6f5780601f10610c4457610100808354040283529160200191610c6f565b820191906000526020600020905b815481529060010190602001808311610c5257829003601f168201915b5050505050815260200160058201548152602001600682018054610c92906131c0565b80601f0160208091040260200160405190810160405280929190818152602001828054610cbe906131c0565b8015610d0b5780601f10610ce057610100808354040283529160200191610d0b565b820191906000526020600020905b815481529060010190602001808311610cee57829003601f168201915b505050505081526020016007820154815260200160088201548152505092505050919050565b806004805490508110610d79576040517f08c379a0000000000000000000000000000000000000000000000000000000008152600401610d7090612dcc565b60405180910390fd5b600060048381548110610d8f57610d8e6132f9565b5b9060005260206000209060090201905060016002811115610db357610db261329b565b5b8160010160009054906101000a900460ff166002811115610dd757610dd661329b565b5b14610e17576040517f08c379a0000000000000000000000000000000000000000000000000000000008152600401610e0e90612d4c565b60405180910390fd5b60008160030160019054906101000a900461ffff1661ffff1611610e70576040517f08c379a0000000000000000000000000000000000000000000000000000000008152600401610e6790612d2c565b60405180910390fd5b80600301600181819054906101000a900461ffff1680929190610e929061316c565b91906101000a81548161ffff021916908361ffff1602179055505060008160030160019054906101000a900461ffff1661ffff161415610efa5760028160010160006101000a81548160ff02191690836002811115610ef457610ef361329b565b5b02179055505b6000600160009054906101000a900473ffffffffffffffffffffffffffffffffffffffff1690508073ffffffffffffffffffffffffffffffffffffffff166323b872dd333085600801546040518463ffffffff1660e01b8152600401610f6293929190612bf0565b602060405180830381600087803b158015610f7c57600080fd5b505af1158015610f90573d6000803e3d6000fd5b505050506040513d601f19601f82011682018060405250810190610fb491906123f8565b50600060035490506000600260009054906101000a900473ffffffffffffffffffffffffffffffffffffffff1690508073ffffffffffffffffffffffffffffffffffffffff166340c10f1933846040518363ffffffff1660e01b815260040161101e929190612c27565b600060405180830381600087803b15801561103857600080fd5b505af115801561104c573d6000803e3d6000fd5b50505050856005600084815260200190815260200160002081905550600660003373ffffffffffffffffffffffffffffffffffffffff1673ffffffffffffffffffffffffffffffffffffffff168152602001908152602001600020829080600181540180825580915050600190039060005260206000200160009091909190915055600360008154809291906110e190613223565b9190505550853373ffffffffffffffffffffffffffffffffffffffff167f7d1cd329a11d8807f0374627923b6cd32942b74b38b1accf931d70a507ff739e8460405161112d9190612e89565b60405180910390a3505050505050565b7fa49807205ce4d355092ef5a8a18f56e8913cf4a201fbe287825b095693c2177581565b6060600660008373ffffffffffffffffffffffffffffffffffffffff1673ffffffffffffffffffffffffffffffffffffffff1681526020019081526020016000208054806020026020016040519081016040528092919081815260200182805480156111ec57602002820191906000526020600020905b8154815260200190600101908083116111d8575b50505050509050919050565b6000600480549050905090565b600080600084815260200190815260200160002060000160008373ffffffffffffffffffffffffffffffffffffffff1673ffffffffffffffffffffffffffffffffffffffff16815260200190815260200160002060009054906101000a900460ff16905092915050565b60008160048054905081106112b9576040517f08c379a00000000000000000000000000000000000000000000000000000000081526004016112b090612dcc565b60405180910390fd5b6000600484815481106112cf576112ce6132f9565b5b906000526020600020906009020160405180610140016040529081600082015481526020016001820160009054906101000a900460ff1660028111156113185761131761329b565b5b600281111561132a5761132961329b565b5b815260200160028201805461133e906131c0565b80601f016020809104026020016040519081016040528092919081815260200182805461136a906131c0565b80156113b75780601f1061138c576101008083540402835291602001916113b7565b820191906000526020600020905b81548152906001019060200180831161139a57829003601f168201915b505050505081526020016003820160009054906101000a900460ff1660028111156113e5576113e461329b565b5b60028111156113f7576113f661329b565b5b81526020016003820160019054906101000a900461ffff1661ffff1661ffff16815260200160048201805461142b906131c0565b80601f0160208091040260200160405190810160405280929190818152602001828054611457906131c0565b80156114a45780601f10611479576101008083540402835291602001916114a4565b820191906000526020600020905b81548152906001019060200180831161148757829003601f168201915b50505050508152602001600582015481526020016006820180546114c7906131c0565b80601f01602080910402602001604051908101604052809291908181526020018280546114f3906131c0565b80156115405780601f1061151557610100808354040283529160200191611540565b820191906000526020600020905b81548152906001019060200180831161152357829003601f168201915b50505050508152602001600782015481526020016008820154815250509050600160028111156115735761157261329b565b5b8160200151600281111561158a5761158961329b565b5b146115995760009250506115a2565b80608001519250505b50919050565b6000801b81565b6115b76121ae565b8160048054905081106115ff576040517f08c379a00000000000000000000000000000000000000000000000000000000081526004016115f690612dcc565b60405180910390fd5b60048381548110611613576116126132f9565b5b906000526020600020906009020160405180610140016040529081600082015481526020016001820160009054906101000a900460ff16600281111561165c5761165b61329b565b5b600281111561166e5761166d61329b565b5b8152602001600282018054611682906131c0565b80601f01602080910402602001604051908101604052809291908181526020018280546116ae906131c0565b80156116fb5780601f106116d0576101008083540402835291602001916116fb565b820191906000526020600020905b8154815290600101906020018083116116de57829003601f168201915b505050505081526020016003820160009054906101000a900460ff1660028111156117295761172861329b565b5b600281111561173b5761173a61329b565b5b81526020016003820160019054906101000a900461ffff1661ffff1661ffff16815260200160048201805461176f906131c0565b80601f016020809104026020016040519081016040528092919081815260200182805461179b906131c0565b80156117e85780601f106117bd576101008083540402835291602001916117e8565b820191906000526020600020905b8154815290600101906020018083116117cb57829003601f168201915b505050505081526020016005820154815260200160068201805461180b906131c0565b80601f0160208091040260200160405190810160405280929190818152602001828054611837906131c0565b80156118845780601f1061185957610100808354040283529160200191611884565b820191906000526020600020905b81548152906001019060200180831161186757829003601f168201915b5050505050815260200160078201548152602001600882015481525050915050919050565b6118b28261051d565b6118c3816118be611c86565b611c8e565b6118cd8383611e0b565b505050565b6060600060048054905067ffffffffffffffff8111156118f5576118f4613328565b5b60405190808252806020026020018201604052801561192e57816020015b61191b6121ae565b8152602001906001900390816119135790505b50905060005b600480549050811015611c145760048181548110611955576119546132f9565b5b906000526020600020906009020160405180610140016040529081600082015481526020016001820160009054906101000a900460ff16600281111561199e5761199d61329b565b5b60028111156119b0576119af61329b565b5b81526020016002820180546119c4906131c0565b80601f01602080910402602001604051908101604052809291908181526020018280546119f0906131c0565b8015611a3d5780601f10611a1257610100808354040283529160200191611a3d565b820191906000526020600020905b815481529060010190602001808311611a2057829003601f168201915b505050505081526020016003820160009054906101000a900460ff166002811115611a6b57611a6a61329b565b5b6002811115611a7d57611a7c61329b565b5b81526020016003820160019054906101000a900461ffff1661ffff1661ffff168152602001600482018054611ab1906131c0565b80601f0160208091040260200160405190810160405280929190818152602001828054611add906131c0565b8015611b2a5780601f10611aff57610100808354040283529160200191611b2a565b820191906000526020600020905b815481529060010190602001808311611b0d57829003601f168201915b5050505050815260200160058201548152602001600682018054611b4d906131c0565b80601f0160208091040260200160405190810160405280929190818152602001828054611b79906131c0565b8015611bc65780601f10611b9b57610100808354040283529160200191611bc6565b820191906000526020600020905b815481529060010190602001808311611ba957829003601f168201915b5050505050815260200160078201548152602001600882015481525050828281518110611bf657611bf56132f9565b5b60200260200101819052508080611c0c90613223565b915050611934565b508091505090565b60007f01ffc9a7000000000000000000000000000000000000000000000000000000007bffffffffffffffffffffffffffffffffffffffffffffffffffffffff1916827bffffffffffffffffffffffffffffffffffffffffffffffffffffffff1916149050919050565b600033905090565b611c988282611205565b611d2757611cbd8173ffffffffffffffffffffffffffffffffffffffff166014611eec565b611ccb8360001c6020611eec565b604051602001611cdc929190612bb6565b6040516020818303038152906040526040517f08c379a0000000000000000000000000000000000000000000000000000000008152600401611d1e9190612cca565b60405180910390fd5b5050565b611d358282611205565b611e0757600160008084815260200190815260200160002060000160008373ffffffffffffffffffffffffffffffffffffffff1673ffffffffffffffffffffffffffffffffffffffff16815260200190815260200160002060006101000a81548160ff021916908315150217905550611dac611c86565b73ffffffffffffffffffffffffffffffffffffffff168173ffffffffffffffffffffffffffffffffffffffff16837f2f8788117e7eff1d82e926ec794901d17c78024a50270940304540a733656f0d60405160405180910390a45b5050565b611e158282611205565b15611ee857600080600084815260200190815260200160002060000160008373ffffffffffffffffffffffffffffffffffffffff1673ffffffffffffffffffffffffffffffffffffffff16815260200190815260200160002060006101000a81548160ff021916908315150217905550611e8d611c86565b73ffffffffffffffffffffffffffffffffffffffff168173ffffffffffffffffffffffffffffffffffffffff16837ff6391f5c32d9c69d2a47ea670b442974b53935d1edc7fd64eb21e047a839171b60405160405180910390a45b5050565b606060006002836002611eff9190612ffa565b611f099190612fa4565b67ffffffffffffffff811115611f2257611f21613328565b5b6040519080825280601f01601f191660200182016040528015611f545781602001600182028036833780820191505090505b5090507f300000000000000000000000000000000000000000000000000000000000000081600081518110611f8c57611f8b6132f9565b5b60200101907effffffffffffffffffffffffffffffffffffffffffffffffffffffffffffff1916908160001a9053507f780000000000000000000000000000000000000000000000000000000000000081600181518110611ff057611fef6132f9565b5b60200101907effffffffffffffffffffffffffffffffffffffffffffffffffffffffffffff1916908160001a905350600060018460026120309190612ffa565b61203a9190612fa4565b90505b60018111156120da577f3031323334353637383961626364656600000000000000000000000000000000600f86166010811061207c5761207b6132f9565b5b1a60f81b828281518110612093576120926132f9565b5b60200101907effffffffffffffffffffffffffffffffffffffffffffffffffffffffffffff1916908160001a905350600485901c9450806120d390613196565b905061203d565b506000841461211e576040517f08c379a000000000000000000000000000000000000000000000000000000000815260040161211590612d0c565b60405180910390fd5b8091505092915050565b828054612134906131c0565b90600052602060002090601f016020900481019282612156576000855561219d565b82601f1061216f57805160ff191683800117855561219d565b8280016001018555821561219d579182015b8281111561219c578251825591602001919060010190612181565b5b5090506121aa9190612229565b5090565b60405180610140016040528060008152602001600060028111156121d5576121d461329b565b5b815260200160608152602001600060028111156121f5576121f461329b565b5b8152602001600061ffff16815260200160608152602001600081526020016060815260200160008152602001600081525090565b5b8082111561224257600081600090555060010161222a565b5090565b600061225961225484612ec9565b612ea4565b9050828152602081018484840111156122755761227461335c565b5b61228084828561312a565b509392505050565b60008135905061229781613605565b92915050565b6000815190506122ac81613605565b92915050565b6000815190506122c18161361c565b92915050565b6000813590506122d681613633565b92915050565b6000813590506122eb8161364a565b92915050565b60008135905061230081613661565b92915050565b600082601f83011261231b5761231a613357565b5b813561232b848260208601612246565b91505092915050565b60008135905061234381613671565b92915050565b60008135905061235881613688565b92915050565b60006020828403121561237457612373613366565b5b600061238284828501612288565b91505092915050565b6000602082840312156123a1576123a0613366565b5b60006123af8482850161229d565b91505092915050565b600080604083850312156123cf576123ce613366565b5b60006123dd85828601612288565b92505060206123ee85828601612349565b9150509250929050565b60006020828403121561240e5761240d613366565b5b600061241c848285016122b2565b91505092915050565b60006020828403121561243b5761243a613366565b5b6000612449848285016122c7565b91505092915050565b6000806040838503121561246957612468613366565b5b6000612477858286016122c7565b925050602061248885828601612288565b9150509250929050565b6000602082840312156124a8576124a7613366565b5b60006124b6848285016122dc565b91505092915050565b600080600080600080600080610100898b0312156124e0576124df613366565b5b600089013567ffffffffffffffff8111156124fe576124fd613361565b5b61250a8b828c01612306565b985050602061251b8b828c016122f1565b975050604061252c8b828c01612334565b965050606089013567ffffffffffffffff81111561254d5761254c613361565b5b6125598b828c01612306565b955050608061256a8b828c01612349565b94505060a089013567ffffffffffffffff81111561258b5761258a613361565b5b6125978b828c01612306565b93505060c06125a88b828c01612349565b92505060e06125b98b828c01612349565b9150509295985092959890939650565b6000602082840312156125df576125de613366565b5b60006125ed84828501612349565b91505092915050565b600061260283836129aa565b905092915050565b60006126168383612b98565b60208301905092915050565b61262b81613054565b82525050565b600061263c82612f1a565b6126468185612f55565b93508360208202850161265885612efa565b8060005b85811015612694578484038952815161267585826125f6565b945061268083612f3b565b925060208a0199505060018101905061265c565b50829750879550505050505092915050565b60006126b182612f25565b6126bb8185612f66565b93506126c683612f0a565b8060005b838110156126f75781516126de888261260a565b97506126e983612f48565b9250506001810190506126ca565b5085935050505092915050565b61270d81613066565b82525050565b61271c81613072565b82525050565b61272b81613106565b82525050565b61273a81613118565b82525050565b600061274b82612f30565b6127558185612f77565b9350612765818560208601613139565b61276e8161336b565b840191505092915050565b600061278482612f30565b61278e8185612f88565b935061279e818560208601613139565b6127a78161336b565b840191505092915050565b60006127bd82612f30565b6127c78185612f99565b93506127d7818560208601613139565b80840191505092915050565b60006127f0601383612f88565b91506127fb8261337c565b602082019050919050565b6000612813602083612f88565b915061281e826133a5565b602082019050919050565b6000612836601283612f88565b9150612841826133ce565b602082019050919050565b6000612859601b83612f88565b9150612864826133f7565b602082019050919050565b600061287c601483612f88565b915061288782613420565b602082019050919050565b600061289f601583612f88565b91506128aa82613449565b602082019050919050565b60006128c2602e83612f88565b91506128cd82613472565b604082019050919050565b60006128e5601483612f88565b91506128f0826134c1565b602082019050919050565b6000612908601683612f88565b9150612913826134ea565b602082019050919050565b600061292b601483612f88565b915061293682613513565b602082019050919050565b600061294e601783612f99565b91506129598261353c565b601782019050919050565b6000612971601183612f99565b915061297c82613565565b601182019050919050565b6000612994602f83612f88565b915061299f8261358e565b604082019050919050565b6000610140830160008301516129c36000860182612b98565b5060208301516129d66020860182612731565b50604083015184820360408601526129ee8282612740565b9150506060830151612a036060860182612722565b506080830151612a166080860182612b7a565b5060a083015184820360a0860152612a2e8282612740565b91505060c0830151612a4360c0860182612b98565b5060e083015184820360e0860152612a5b8282612740565b915050610100830151612a72610100860182612b98565b50610120830151612a87610120860182612b98565b508091505092915050565b600061014083016000830151612aab6000860182612b98565b506020830151612abe6020860182612731565b5060408301518482036040860152612ad68282612740565b9150506060830151612aeb6060860182612722565b506080830151612afe6080860182612b7a565b5060a083015184820360a0860152612b168282612740565b91505060c0830151612b2b60c0860182612b98565b5060e083015184820360e0860152612b438282612740565b915050610100830151612b5a610100860182612b98565b50610120830151612b6f610120860182612b98565b508091505092915050565b612b83816130ce565b82525050565b612b92816130ce565b82525050565b612ba1816130fc565b82525050565b612bb0816130fc565b82525050565b6000612bc182612941565b9150612bcd82856127b2565b9150612bd882612964565b9150612be482846127b2565b91508190509392505050565b6000606082019050612c056000830186612622565b612c126020830185612622565b612c1f6040830184612ba7565b949350505050565b6000604082019050612c3c6000830185612622565b612c496020830184612ba7565b9392505050565b60006020820190508181036000830152612c6a8184612631565b905092915050565b60006020820190508181036000830152612c8c81846126a6565b905092915050565b6000602082019050612ca96000830184612704565b92915050565b6000602082019050612cc46000830184612713565b92915050565b60006020820190508181036000830152612ce48184612779565b905092915050565b60006020820190508181036000830152612d05816127e3565b9050919050565b60006020820190508181036000830152612d2581612806565b9050919050565b60006020820190508181036000830152612d4581612829565b9050919050565b60006020820190508181036000830152612d658161284c565b9050919050565b60006020820190508181036000830152612d858161286f565b9050919050565b60006020820190508181036000830152612da581612892565b9050919050565b60006020820190508181036000830152612dc5816128b5565b9050919050565b60006020820190508181036000830152612de5816128d8565b9050919050565b60006020820190508181036000830152612e05816128fb565b9050919050565b60006020820190508181036000830152612e258161291e565b9050919050565b60006020820190508181036000830152612e4581612987565b9050919050565b60006020820190508181036000830152612e668184612a92565b905092915050565b6000602082019050612e836000830184612b89565b92915050565b6000602082019050612e9e6000830184612ba7565b92915050565b6000612eae612ebf565b9050612eba82826131f2565b919050565b6000604051905090565b600067ffffffffffffffff821115612ee457612ee3613328565b5b612eed8261336b565b9050602081019050919050565b6000819050602082019050919050565b6000819050602082019050919050565b600081519050919050565b600081519050919050565b600081519050919050565b6000602082019050919050565b6000602082019050919050565b600082825260208201905092915050565b600082825260208201905092915050565b600082825260208201905092915050565b600082825260208201905092915050565b600081905092915050565b6000612faf826130fc565b9150612fba836130fc565b9250827fffffffffffffffffffffffffffffffffffffffffffffffffffffffffffffffff03821115612fef57612fee61326c565b5b828201905092915050565b6000613005826130fc565b9150613010836130fc565b9250817fffffffffffffffffffffffffffffffffffffffffffffffffffffffffffffffff04831182151516156130495761304861326c565b5b828202905092915050565b600061305f826130dc565b9050919050565b60008115159050919050565b6000819050919050565b60007fffffffff0000000000000000000000000000000000000000000000000000000082169050919050565b60008190506130b6826135dd565b919050565b60008190506130c9826135f1565b919050565b600061ffff82169050919050565b600073ffffffffffffffffffffffffffffffffffffffff82169050919050565b6000819050919050565b6000613111826130a8565b9050919050565b6000613123826130bb565b9050919050565b82818337600083830152505050565b60005b8381101561315757808201518184015260208101905061313c565b83811115613166576000848401525b50505050565b6000613177826130ce565b9150600082141561318b5761318a61326c565b5b600182039050919050565b60006131a1826130fc565b915060008214156131b5576131b461326c565b5b600182039050919050565b600060028204905060018216806131d857607f821691505b602082108114156131ec576131eb6132ca565b5b50919050565b6131fb8261336b565b810181811067ffffffffffffffff8211171561321a57613219613328565b5b80604052505050565b600061322e826130fc565b91507fffffffffffffffffffffffffffffffffffffffffffffffffffffffffffffffff8214156132615761326061326c565b5b600182019050919050565b7f4e487b7100000000000000000000000000000000000000000000000000000000600052601160045260246000fd5b7f4e487b7100000000000000000000000000000000000000000000000000000000600052602160045260246000fd5b7f4e487b7100000000000000000000000000000000000000000000000000000000600052602260045260246000fd5b7f4e487b7100000000000000000000000000000000000000000000000000000000600052603260045260246000fd5b7f4e487b7100000000000000000000000000000000000000000000000000000000600052604160045260246000fd5b600080fd5b600080fd5b600080fd5b600080fd5b6000601f19601f8301169050919050565b7f72657175697265206172726976616c436f646500000000000000000000000000600082015250565b7f537472696e67733a20686578206c656e67746820696e73756666696369656e74600082015250565b7f6e6f20617661696c61626c652073656174730000000000000000000000000000600082015250565b7f7469636b6574206973206e6f74206f70656e20666f722073616c650000000000600082015250565b7f7469636b657420646f65736e2774206578697374000000000000000000000000600082015250565b7f7265717569726520646570617274757265436f64650000000000000000000000600082015250565b7f6172726976616c54696d65206d7573742062652067726561746572207468616e60008201527f2064657061727475726554696d65000000000000000000000000000000000000602082015250565b7f666c6967687420646f65736e2774206578697374000000000000000000000000600082015250565b7f43616c6c6572206973206e6f7420616e2061646d696e00000000000000000000600082015250565b7f7265717569726520666c696768744e756d626572000000000000000000000000600082015250565b7f416363657373436f6e74726f6c3a206163636f756e7420000000000000000000600082015250565b7f206973206d697373696e6720726f6c6520000000000000000000000000000000600082015250565b7f416363657373436f6e74726f6c3a2063616e206f6e6c792072656e6f756e636560008201527f20726f6c657320666f722073656c660000000000000000000000000000000000602082015250565b600381106135ee576135ed61329b565b5b50565b600381106136025761360161329b565b5b50565b61360e81613054565b811461361957600080fd5b50565b61362581613066565b811461363057600080fd5b50565b61363c81613072565b811461364757600080fd5b50565b6136538161307c565b811461365e57600080fd5b50565b6003811061366e57600080fd5b50565b61367a816130ce565b811461368557600080fd5b50565b613691816130fc565b811461369c57600080fd5b5056fea26469706673582212201501f273555cd593d903305264846b297560d3b01344878a95f9fd399716564264736f6c63430008070033",
  "linkReferences": {},
  "deployedLinkReferences": {}
}